:020000040800F2
:10000000A01600209D010008A5010008A701000816
:10001000A9010008AB010008AD01000800000000C4
:10002000000000000000000000000000AF01000818
:10003000B101000800000000B3010008B50A000883
:10004000B7010008B7010008B7010008B7010008B0
:10005000B7010008B7010008B7010008B7010008A0
:10006000B7010008B7010008B7010008B701000890
:10007000B7010008B7010008B7010008B701000880
:10008000B7010008B7010008B7010008B701000870
:10009000B7010008B7010008B7010008B701000860
:1000A000B7010008B7010008B7010008B701000850
:1000B000B7010008B7010008B7010008B701000840
:1000C000B7010008B7010008B7010008B701000830
:1000D000B7010008B7010008B7010008B701000820
:1000E00079070008B7010008B701000800F002F81E
:1000F00000F045F80AA090E8000C82448344AAF17D
:100100000107DA4501D100F03AF8AFF2090EBAE87A
:100110000F0013F0010F18BFFB1A43F0010318473B
:10012000980D0000B80D0000103A24BF78C878C1BF
:10013000FAD8520724BF30C830C144BF04680C60ED
:10014000704700000023002400250026103A28BF35
:1001500078C1FBD8520728BF30C148BF0B60704739
:10016000752900F09F80782900F0D880732900F06D
:100170006E82002070471FB51FBD10B510BD00F086
:100180009CFA1146FFF7F7FF00F038FD00F0BAFACD
:1001900003B4FFF7F2FF03BC00F0C2FA094880473E
:1001A00009480047FEE7FEE7FEE7FEE7FEE7FEE759
:1001B000FEE7FEE7FEE7FEE704480549054A064B71
:1001C00070470000ED0A0008ED000008A0100020B4
:1001D000A0160020A0120020A01200200FB41CB511
:1001E000074B06AA7B4469460090059800F005FA83
:1001F0000020694600F014FA1CBC5DF814FB0000F6
:100200003904000070B5044685690068C10601D54F
:10021000302600E02026C00707D070BDD4E90121B8
:1002200030469047206A401C20626D1EF6D570BD96
:1002300070B5044685690078C00707D170BDD4E960
:10024000012120209047206A401C20626D1EF6D5B7
:1002500070BD70B50C460546012A05D02878800689
:1002600000D5EA69002302E0012305E05B1C93420C
:1002700002D2E05C0028F9D1A869E618C01AA8618A
:10028000286A184428622846FFF7BCFF04E0D5E935
:10029000012114F8010B9047B442F8D32846FFF728
:1002A000C7FF70BD2DE9F04106460024106875298E
:1002B000314616A510D0AFF30080002802DA404284
:1002C00013A507E031688A0701D512A502E04907A6
:1002D00004D511A5012401E0AFF3008000210A221A
:1002E00006F1240709E0B0FBF2FCB0FBF2F302FBDD
:1002F0001C00303078541846491C0028F3D123469E
:100300002A463046BDE8F04100F018B90000000070
:100310002D0000002B0000002000000070B50446F6
:100320000D4621461068AFF300802188090502D5EB
:100330000F4A7A4402E00E4A7A440E32002104F158
:10034000240305E000F00F060009965D5E54491C89
:100350000028F7D120780023000704D5702D02D0A3
:1003600009B1022311322046BDE8704000F0E6B822
:10037000080B00002DE9F05F894604464FF0000AA3
:10038000DFF824B1FB44C0F820A02046E16888478C
:1003900000287DD0252806D0D4E901219047206A85
:1003A000401C2062F1E700255F462046E16888474F
:1003B0002028064607DB312E05D2B81910F8200C8C
:1003C00008B10543F1E7A80701D525F00405C4F8F5
:1003D0001CA00027C4F818A02A2E09D0304600F02F
:1003E00027FD38B304EB8708303EC8F8186019E0E1
:1003F00059F8041B204604EB87029161E1688847A5
:10040000012F064618D1E069002820DA25F02005E2
:100410001DE0D8F8180000EB800006EB40003038F3
:10042000C8F818002046E1688847064600F000FD3D
:100430000028EED1012F0AD02E2E08D12046E168E7
:1004400088477F1C0646022F45F02005C4DBA069C3
:10045000002803DA404245F00105A061E80701D019
:1004600025F01005A6B1A6F14100192802D82036C2
:1004700045F400654A463146204625604D46FFF763
:100480006FFE60B1012807D0ED1D25F0070000E0E8
:1004900007E000F1080978E705F1040975E730463F
:1004A0007AE7206ABDE8F09FDE0A0000032A40F2E6
:1004B000308010F0030C00F0158011F8013BBCF106
:1004C000020F624498BF11F801CB00F8013B38BF1E
:1004D00011F8013BA2F1040298BF00F801CB38BF2C
:1004E00000F8013B11F0030300F0B580083AC0F0BA
:1004F000088051F8043B083A51F804CBA0E80810F2
:10050000F5E7121D5CBF51F8043B40F8043BAFF324
:100510000080D20724BF11F8013B11F801CB48BF7E
:1005200011F8012B24BF00F8013B00F801CB48BFB4
:1005300000F8012B70477047704770472DE9F0476E
:100540000D4699469246044600F124080168880643
:1005500004D5E06921F01001216000E00120A842EB
:1005600001DD471B00E00027A1697A1902EB0900B1
:10057000081AA0612078C00602D42046FFF742FE88
:10058000002608E0D4E901211AF806009047206A05
:10059000401C761C20624E45F4DB2078C0060AD54C
:1005A0002046FFF72FFE06E0D4E9012130209047D6
:1005B000206A401C2062381EA7F10107F4DC07E026
:1005C000D4E9012118F805009047206A401C2062F8
:1005D000281EA5F10105F3DC2046FFF729FE20784F
:1005E000000602D50220BDE8F0870120FBE70000ED
:1005F00001694A1C02610878704700B58FB0CDE9E7
:1006000001310021059105497944CDE903101146D6
:100610006846FFF7AFFE0FB000BD0000E5FFFFFF2B
:100620000A6802F8010B0A60704710B5436913B1FC
:10063000AFF3008001E0FFF70CFE012010BD12783F
:1006400000F124010A7000224A700122EDE71168CE
:100650004FF0FF32E9E710B5203AC0F00B80B1E867
:100660001850A0E81850B1E81850A0E81850203AE7
:10067000BFF4F5AF5FEA027C24BFB1E81850A0E8F0
:10068000185044BF18C918C0BDE810405FEA827C0A
:1006900024BF51F8043B40F8043B08BF7047D20721
:1006A00028BF31F8023B48BF11F8012B28BF20F8C2
:1006B000023B48BF00F8012B7047754600F02CF84C
:1006C000AE4605006946534620F00700854618B03F
:1006D00020B5FFF771FDBDE820404FF000064FF058
:1006E00000074FF000084FF0000BAC46ACE8C00923
:1006F000ACE8C009ACE8C009ACE8C00921F00701CA
:100700008D46704710B50446AFF300802046BDE823
:100710001040FFF73DBD0000004870473800002042
:1007200001491820ABBEFEE726000200704700001A
:1007300080B582B04FF60370ADF806000DF10600EB
:100740000221012200F000FB9DF8070003A2411ED8
:1007500005A0032938BF104602B080BD436F6E6EFE
:100760006563746564000000446973636F6E6E6551
:10077000637465640000000010B540F21440C4F2D8
:100780000100016840F2980441F48051C2F2000473
:10079000016061202146022200F000F9227840F237
:1007A0009904C2F200040DA12046FFF717FD204670
:1007B00000F00AF940F20000C2F20000C11D07205B
:1007C000012200F0E5F90020207144F64F30C0F618
:1007D0000D202060204600F0F7F810BD5B4E524619
:1007E0005D20526561642E2E2E2E25750D0A0000A7
:1007F00010B50446411D0520012200F0C9F904F19D
:100800002B011120012200F0C3F904F12C01122068
:10081000012200F0BDF904F12D011320012200F0A6
:10082000B7F904F12E011420012200F0B1F904F10E
:100830002F011520012200F0ABF904F13001162040
:10084000012200F0A5F904F108010A20052200F0B8
:100850009FF904F126011020052200F099F9A11D4D
:100860000620012200F094F900202146012200F028
:100870008FF9611C0120012200F08AF9A11C0220DD
:10088000012200F085F9211D0420012200F080F9E9
:1008900004F131011C20012200F07AF9E11D07204A
:1008A000012200F075F910BD80B541F21800C4F2C4
:1008B0000200016841F00901016040F60440C4F201
:1008C0000100016821F470210160016841F4802178
:1008D00001604FF21041CFF6FF71425842F0010221
:1008E00042504FF60801CFF6FF71425842F4805251
:1008F00042504FF61001CFF6FF71425842F4805239
:1009000042504FF2FC71CFF6FF71425842F48052D0
:10091000425000F05FF980BD2DE9F04784B040F609
:10092000776640F299040025C0F600064FF0FF0AF2
:10093000E846C2F200040FF25409CDE90255CDE9B0
:10094000005500BF7019775D4178404601228DF84F
:1009500000708DF801A000F0F7F99DF801302046F5
:1009600049463A46FFF73AFC204600F02DF8A81C0D
:10097000C5B22A2DE6D30020A07040F60D202080BD
:10098000204600F021F804B0BDE8F0872530327829
:10099000202D2D3E20253032780D0A0010B582B072
:1009A0000C460021ADF806108DF80600FF208DF8EA
:1009B00007000DF106001146012200F0C5F99DF86F
:1009C0000700207002B010BD0178002908BF7047F1
:1009D00043F60002C4F2010213885B06FCD5C9B2DB
:1009E000918010F8011F0029F6D1704780B500F002
:1009F00001F880BD82B041F204000021C4F202007F
:100A00000191009150F8041C41F4803140F8041C1D
:100A100050F8041C01F40031009101990131019159
:100A2000009919B90199B1F5A06FF1D150F8041CE2
:100A3000890354BF0021012100910099012936D179
:100A400042F20001C4F202010A6842F010020A6098
:100A50000A6822F007020A600A6842F002020A608D
:100A60000168016001680160016841F48061016012
:100A7000016821F47C110160016841F4E811016012
:100A800050F8041C41F0807140F8041C50F8041C1C
:100A90008901FBD5016821F003010160016841F083
:100AA00002010160016801F00C010829FAD102B0CD
:100AB0007047000041F29C00C2F200000168013161
:100AC000016070474EF2100041F63F12CEF2000076
:100AD0000021C0F201020160426081600021C4F285
:100AE000C001C0F8101D07210160704780B541F2B8
:100AF0000000C4F202000168002241F0010101601F
:100B00004168CFF6FF021140416001684FF6FF7265
:100B1000CFF6F66211400160016821F48021016086
:100B2000416821F4FE0141604FF41F018160FFF72D
:100B30005DFF4EF60850CEF200004FF000610160FC
:100B400080BD000041F20400C4F2020050F8041C11
:100B500041F4803140F8041C016841F4E011016067
:100B600050F8041C41F0807140F8041C42F200016E
:100B7000C4F202010A6842F002020A60016841F40C
:100B800080610160016841F002010160704700006E
:100B900070B582B040F0200040F60C068DF80700DA
:100BA000C4F2010630680D464FF6EF710840144656
:100BB00030600DF107000121002200F0D7F828462F
:100BC0002146002200F0D2F8306840F0100030607A
:100BD00002B070BD4EF20410CEF200004FF48071EE
:100BE0000160704741F29C01C2F200010A6800BF37
:100BF0000B689B1A8342FBD370470000FFF7A2FFEC
:100C0000FFF760FFFFF750FE41F21800C4F2020048
:100C1000016841F2040541F010010160C4F20105D0
:100C2000286820F470002860286840F400102860CC
:100C3000A86840F40050A86000F0C2F800F03EF848
:100C400040F29904C2F2000440F6A461C0F600012B
:100C500020461422FFF72AFC2046FFF7B5FEFFF7D7
:100C600067FD024610A12046FFF7B8FA2046FFF7BD
:100C7000ABFE40F20000C2F20000FFF7B9FDFFF743
:100C80004BFE42F21070FFF7ADFF4FF60800CFF6B3
:100C9000FF70295841F00801295000BF4FF47A70C5
:100CA000FFF7A0FFFAE700BF5B4E52465D2053748A
:100CB000617475733A2025730D0A000041F2180023
:100CC000C4F2020001684FF6F77241F480510160EE
:100CD000016841F00501016040F60000C4F2010026
:100CE000016821F470410160016841F440510160E4
:100CF000C1681140C160016821F470210160016880
:100D000041F440310160C16841F01001C1600168E7
:100D10006FF31F510160016841F430010160016807
:100D200041F080610160016841F03041016043F2AF
:100D30000000C4F20100018841F44571018001887E
:100D400041F0400101807047B0B540F60C05C4F297
:100D500001052B684FF6EF7423402B6000F006F876
:100D6000286840F010002860B0BD000010B543F2C4
:100D7000080441F20C0CC4F20104C4F2010C00BFDF
:100D8000DCF8003083F40053CCF8003023889B0754
:100D9000FCD5034613F801EB012A18BF1846A4F846
:100DA00004E000BF2388DB07FCD0012AB4F804E08C
:100DB00008BF00F801EB013908BF10BDE0E70000F3
:100DC00041F21800C4F20200016841F48041016060
:100DD000016841F00401016040F60400C4F2010022
:100DE000016821F0F0010160016821F47061016087
:100DF000016841F0B0010160016841F400610160E7
:100E0000C16841F48061C16043F60C00C4F2010086
:100E10004FF41C7120F8041C018841F02C01018062
:100E2000002181800181018841F4005101807047D7
:100E300030380A2801D20120704700207047303135
:100E400032333435363738394142434445464030F1
:100E500058003031323334353637383961626364A3
:100E600065664030780004000008000000000000C3
:100E7000000200010000100002010202020302044D
:100E800002050206020702080209020A06100611FC
:100E9000021202130214021502160217021C021D8E
:100EA000020000005354415254204150504C4943D9
:100EB0004154494F4E0D0A00D80E00080000002092
:100EC00034000000280100080C0F00083800002042
:100ED00068160000440100080B0101004F32067043
:100EE000E7B1B2A1A2000000000000000000000075
:100EF0000000000000000000000000000000E7B15A
:0C0F0000B2A1A20120202020200000004F
:040000050800019D51
:00000001FF
